:020000041000EA
:1000000000B5324B212058609868022188439860DF
:10001000D860186158612E4B002199600221596106
:100020000121F02299502B49196001219960352056
:1000300000F044F80222904214D00621196600F024
:1000400034F8196E01211966002018661A6600F04E
:100050002CF8196E196E196E052000F02FF8012189
:100060000842F9D1002199601B49196000215960AB
:100070001A491B48016001219960EB211966A021F2
:10008000196600F012F800219960164914480160C1
:100090000121996001BC002800D000471248134993
:1000A000086003C880F30888084703B5996A0420EC
:1000B0000142FBD001200142F8D103BD02B5186610
:1000C0001866FFF7F2FF186E186E02BD00000240BE
:1000D000000000180000070000035F00212200005C
:1000E000F4000018222000A00001001008ED00E03C
:1000F00000000000000000000000000074B24E7A12
:1001000000200420F7010010C3010010C5010010F9
:10011000C1010010C1010010C1010010C101001097
:10012000C1010010C1010010C1010010C701001081
:10013000C1010010C1010010C9010010CB01001065
:10014000CD010010CD010010CD010010CD01001037
:10015000CD010010CD010010CD010010CD01001027
:10016000CD010010CD010010CD010010CD01001017
:10017000CD010010CD010010CD010010CD01001007
:10018000CD010010CD010010CD010010CD010010F7
:10019000CD010010CD010010CD010010CD010010E7
:1001A000CD010010CD010010CD010010CD010010D7
:1001B000CD010010CD010010CD010010CD010010C7
:1001C00000BE00BE00BE00BE00BE00BE00F04BF888
:1001D000103800BEF2EB887120E0001040E0001003
:1001E0003402001090A31AE700202149086006C8D5
:1001F00081F3088810471F48006800282FD10DA4FC
:100200000ECC002902D000F012F8F9E71A491B4A77
:10021000002000E001C19142FCD1194988471949E9
:1002200088471949884700BEFDE701C901C29A42C3
:10023000FBD3704740E00010C0000020E006002023
:1002400060E60010000004200000042060E60010BA
:1002500000100420001004200000000070470B482C
:1002600005F012FF0047EFF30580C0B270470000B1
:1002700008ED00E0000000D0E0060020601400203F
:10028000DD360010A908001017380010575600007E
:1002900005005250DE65F46860E60010060052501A
:1002A0005422A29DB0D9001006005250861C0302B1
:1002B000BCD9001006005250ABB36053D4D9001023
:1002C000F8B5C0460448054B10B5834203D0044B33
:1002D000002B00D0984710BDE0060020E00600206B
:1002E0000000000006480749091A8910CB0F591869
:1002F00010B5491003D0044B002B00D0984710BD17
:10030000E0060020E00600200000000010B5074CC9
:100310002378002B09D1FFF7D5FF054B002B02D026
:10032000044800E000BF0123237010BDE80700204F
:1003300000000000E0C70010054B10B5002B03D0F3
:100340000449054800E000BFFFF7CCFF10BDC046E0
:1003500000000000EC070020E0C7001080B582B06C
:1003600000AF78607B6800220121180000F058FE81
:10037000C046BD4602B080BD80B582B000AF786097
:10038000D0231B065A687B68DA4013000122134011
:100390005A1E9341DBB21800BD4602B080BD80B545
:1003A00082B000AF7860D0231B067A685A61C046DD
:1003B000BD4602B080BD80B582B000AF7860D0236A
:1003C0001B067A689A61C046BD4602B080BD80B502
:1003D00084B000AF78600A00FB1C1A7001227B68B1
:1003E0009A401300FB60FB1C1B78002B04D0FB68B9
:1003F0001800FFF7D4FF03E0FB681800FFF7DBFFEE
:10040000C046BD4604B080BD80B582B000AF786004
:10041000D0231B067A685A62C046BD4602B080BD32
:1004200080B582B000AF7860D0231B067A689A62EC
:10043000C046BD4602B080BD80B584B000AF7860D4
:100440000A00FB1C1A7001227B689A401300FB60B3
:10045000FB1C1B78002B04D0FB681800FFF7D4FFAF
:1004600003E0FB681800FFF7DBFFC046BD4604B0A1
:1004700080BD000080B582B000AF78607B68054A1F
:10048000944663445A425341DBB21800BD4602B061
:1004900080BDC0460080FCBF80B582B000AF7860F0
:1004A0007B681800FFF7E6FF7B681800BD4602B0C6
:1004B00080BD80B582B000AF78607B681800FFF720
:1004C000EBFF03009B69102213405A425341DBB2F9
:1004D0001800BD4602B080BD80B586B000AFF860A0
:1004E000B9607A6000237B6118E0FB681800FFF7B1
:1004F000E0FF03001A0001235340DBB2002BF4D1CC
:10050000FB681800FFF7C8FF03001968BB685A1C96
:10051000BA60CAB21A707B6901337B617A697B6801
:100520009A42E2D3C046BD4606B080BD90B585B0C4
:1005300000AF78600F2439197B6801221800FFF79B
:10054000CBFF3B191B781800BD4605B090BD80B5A8
:1005500082B000AF7860C046BD4602B080BD80B5B5
:1005600082B000AF78607B685B08072213401800F8
:10057000BD4602B080BD000080B58AB000AFF86013
:10058000B960BB1D1A80FB681800FFF7E0FFFA682E
:1005900013009B009B189B000C33134A9918BB1D3A
:1005A0001A88BB68002B01D0102300E000239A407A
:1005B000BB68002B01D00D4B00E00D4B79623A6215
:1005C000FB617B6A1A683B6A5340FA6913407A6A96
:1005D000BA617B61BB698022520113437A691A6058
:1005E000C046BD460AB080BD000005400000FFFFC8
:1005F000FFFF000080B582B000AF0B4B7B6004238F
:100600003B607B688022920113433A681A60064B74
:100610001A6880235B001340F9D0034B5B689BB2E0
:100620001800BD4602B080BD00C0044080B584B053
:1006300000AF786039600123FB6006E0FB687A68F0
:100640005343FB603B68013B3B603B68002BF5DCA0
:10065000FB681800BD4604B080BDF0B585B000AFA2
:1006600078600A00FB1C1A700023FB600B23FB1848
:10067000FA1C1278013A1A700A23FB1800221A7029
:100680001CE00B257B191B787A68D3181B781C009B
:100690000A26BB191B7819000A20FFF7C7FF0300C1
:1006A0006343FA68D318FB607B191A787B19013A07
:1006B0001A70BB191A78BB1901321A700A23FA187A
:1006C000FB1C12781B789A42DBD9FB681800BD46E8
:1006D00005B0F0BD80B582B000AF3B001860596036
:1006E0003B005B78722B01D1012306E03B005B7875
:1006F000732B01D1012300E000231800BD4602B096
:1007000080BD0000F0B593B000AF786239623B6AFB
:100710001800FFF7CEFE031E00D1B8E06B467B60E9
:10072000232620239C46BC4466443B6A1800FFF7FE
:10073000FDFE0300337022232022BA18D6183B6A2C
:100740001800FFF7F3FE0300337023262023FB1865
:100750009B191B781A00013AFA631C00002215004D
:10076000200029000200520F0C00E400FC61FC692B
:100770001443FC610200D200BA61BB600022FA603F
:10078000B868F9680200520F0C00E4007C617C69D3
:1007900014437C610200D2003A610733DB08DB00BE
:1007A0006A46D21A95466B460033BB632023FB187A
:1007B0009B191978222320229446BC4463441A785A
:1007C000364B180006F02AFF00237B6417E03B6AD3
:1007D0001800FFF7ABFE03001900BA6B7B6CD3184F
:1007E0000A1C1A70BA6B7B6CD3181B781A00796CD0
:1007F0002B4B180006F012FF7B6C01337B64232423
:100800002023FB181B191B787A6C9A42DFDBBA6B2A
:100810002023FB181B191B7819001000FFF71DFF80
:1008200003007B637A6B1F4B1100180006F0F6FE85
:100830000C212023FB185B182022BA1812191278F9
:100840001A702023FB185B18222220208446BC4407
:10085000624412785A702023FB185B187A6B5A6036
:100860002023FB185B1818685968FFF733FF031E35
:1008700002D1002002F0CFFF7B6A0C2220218C469F
:10088000BC44624403CA03C37B689D4602E0002067
:1008900002F0C1FF786ABD4613B0F0BDE0C700109A
:1008A000F8C700100CC80010F0B595B004AF06F002
:1008B000CCFE1923FB63FB6B180000F017FCFB6BED
:1008C00001211800FFF7B8FDFB6B01211800FFF7AD
:1008D0007EFD6A4BBB63BB6B1900162000F04EF91E
:1008E0001620FFF73CFE03007B63BB6B180000F093
:1008F00033F903003B632E23FB1800221A801A20D1
:1009000000F0F2F910203B185D4A32CA32C312CA15
:1009100012C308217B1800221A607B1801225A603A
:100920003B18791804226A4411C911C26A46196930
:100930001160186859689A68DB6800F0FDFA2D2389
:10094000FC18504B1800FFF7F1FD03002370152031
:1009500000F0CCFB00211520FFF76EFD1520FFF7FE
:10096000FDFC484B1800FFF7A4FD031E27D03B00F9
:10097000444A11001800FFF7C5FE3B005B78722B5C
:100980001DD13B001B7819003B005B781A003B002F
:100990005B683D4806F042FE3B005B683A6B110025
:1009A000180000F07BFA03009AB27B6B002118005C
:1009B000FFF7E2FDFA239B00180001F01FFF334B05
:1009C000BB6226257C19FFF715FE030023807B19E7
:1009D0001C887B191B88180006F09AFA031CB96A58
:1009E000181C06F086FA031C181C06F0EDFA050028
:1009F0000E003A6B2623FB181B881100180000F02C
:100A000027F90300224800932A003300210006F052
:100A100005FE3A6B2623FB181B881100180000F016
:100A200017F903009AB27B6B00211800FFF7A4FDB1
:100A3000FA239B00180001F0E1FE1520FFF79CFC53
:100A400003001A0001235340DBB2002B0AD015200B
:100A5000FFF792FC03001A000E4B1100180006F07D
:100A6000DDFD7EE71520FFF787FC03001A000A4B27
:100A70001100180006F0D2FD73E7C046A86100001F
:100A800094C800100040034018C800103333533A94
:100A90003CC8001064C800107CC8001080B582B04B
:100AA00000AF7860C046BD4602B080BD80B582B060
:100AB00000AF78607B685B08072213401800BD46D2
:100AC00002B080BD80B582B000AF78600A00BB1C68
:100AD0001A807B681800FFF7E1FF0748BB1C1988E4
:100AE0007A6813009B009B189B00C3181033196091
:100AF000C046BD4602B080BD0000054080B588B04C
:100B000000AF78600A00FB1C1A707B681800FFF7C2
:100B1000C5FF7A6813009B009B189B000D4A944602
:100B20006344FA1C1278FB61BA6101237B61FB69A3
:100B30001A68BB6953407A691340FA693A61FB60ED
:100B40003B69802252011343FA681A60C046BD46D1
:100B500008B080BD0000054080B584B000AF78606B
:100B6000054BFB607968F86805F016FB0300180078
:100B7000BD4604B080BDC0464059730780B584B0FF
:100B800000AF786039607B680421180000F018FA23
:100B90007B681800FFF78AFF0300FB60FB680121F8
:100BA0001800FFF7ABFF3B681800FFF7D5FF030005
:100BB0009AB2FB6811001800FFF784FFC046BD46DB
:100BC00004B080BD80B582B000AF78607B68002241
:100BD0000021180000F024FAC046BD4602B080BDD6
:100BE00080B582B000AF78607B681F21180000F0EC
:100BF000E7F97B681800FFF7E5FF7B680021180024
:100C000000F046FAC046BD4602B080BD80B588B04F
:100C100000AF78607B681B030C4AFA61BB61E0237C
:100C2000DB017B61FB691A68BB6953407A69134039
:100C3000FA693A61FB603B69802252011343FA680A
:100C40001A60C046BD4608B080BDC04600C0044022
:100C5000B0B586B000AF02003960BB1D1A8000231A
:100C60007B61386805F070FD1D4A1E4B05F007FDDD
:100C700003000C001A00230012257C191000190033
:100C800005F0A2FD030023803B681B0B180006F053
:100C900039F9031CFB60BB1D1B88180006F038F9EE
:100CA000031CF968181C06F024F9031C181C06F034
:100CB00051F903007B617B191B887A699A420ADD2E
:100CC0007B191B883A68D21A7B699A4201D83B6823
:100CD00002E07B6900E000231800BD4606B0B0BD0D
:100CE0007B14AE47E17A843F80B582B000AF786074
:100CF0000BF0F0FC7B681800FFF772FF7B681A3B73
:100D00001800FFF783FFC046BD4602B080BD00005B
:100D100080B582B000AF78607B68054A9446634432
:100D20005A425341DBB21800BD4602B080BDC046F6
:100D30000080FCBF80B582B000AF78607B6818008F
:100D4000FFF7E6FF7B681800BD4602B080BD80B5A6
:100D500088B000AF786008001100FB1C021C1A70FC
:100D6000BB1C0A1C1A707B681800FFF7E3FF030026
:100D700030331900FB1C1B78002B02D080231A0291
:100D800000E00022BB1C1B78002B02D08023DB017B
:100D900000E000231343F961BB61C0231B027B61A8
:100DA000FB691A68BB6953407A691340FA693A6172
:100DB000FB603B69802252011343FA681A60C04607
:100DC000BD4608B080BD80B58AB000AFF860B9609C
:100DD0007A601A00FB1C1A70FB681800FFF7AAFF64
:100DE00003002C331A00BB68053B59017B68013BAB
:100DF000DB001943FB1C1B78002B01D0022300E011
:100E000000231943FB1C1B78012B01D1042300E0B4
:100E100000230B437A623B626E23FB617B6A1A6894
:100E20003B6A5340FA6913407A6ABA617B61BB69D5
:100E30008022520113437A691A60C046BD460AB047
:100E400080BD80B588B000AF78600A00FB1C1A70C6
:100E50007B681800FFF76EFF03002C331A00FB1CA1
:100E60001B78002B01D0102300E00023FA61BB6146
:100E700010237B61FB691A68BB6953407A69134090
:100E8000FA693A61FB603B69802252011343FA68B8
:100E90001A60C046BD4608B080BD0000F0B585B000
:100EA00000AF786039600023FB60386805F04CFCC7
:100EB0001F4A204B05F0E3FB03000C001A0023003F
:100EC0000A26BC191000190005F07EFC03002380DF
:100ED000386805F039FC04000D00786805F038FC2E
:100EE000134A144B05F0CBFB02000B002000290035
:100EF00005F0C5FB03000C001800210005F040FCC4
:100F00000300FB60BB191B88FA689A420ADDBB1913
:100F10001B883A68D21AFB689A4201D83B6802E003
:100F2000FB6800E000231800BD4605B0F0BDC046D8
:100F30007B14AE47E17A843F84B0B0B500AF102592
:100F40007C1920606160A260E3602C003B191A6884
:100F50003B195B681900100000F0DEFA1423102220
:100F60009446BC4463441B680221180000F028F832
:100F7000142310229446BC4463445B680221180089
:100F800000F01EF83B191B68002200211800FFF733
:100F9000DEFE3B1918683B1999683B19DA683B1962
:100FA0001B7CFFF710FF3B191B6800211800FFF79F
:100FB00048FFC046BD46B0BC08BC04B0184700009E
:100FC00080B588B000AF78600A00FB1C1A707B689F
:100FD0009B00114A94466344FB614023BB61C023DC
:100FE0007B61FB691A68BB6953407A691340FA69EF
:100FF0003A61FB603B69802252011343FA681A6030
:101000000649FB1C1A787B68DB00CB1804331A6096
:10101000C046BD4608B080BD04C00140004001404C
:1010200080B588B000AF786008001100FB1C021C7E
:101030001A70BB1C0A1C1A707B689B00134A991813
:10104000FB1C1B78002B01D0082200E00022BB1CF7
:101050001B78002B01D0042300E000231343F96127
:10106000BB610C237B61FB691A68BB6953407A69D9
:101070001340FA693A61FB603B69802252011343D5
:10108000FA681A60C046BD4608B080BD04C0014081
:1010900080B586B000AF78600A00FB1C1A70FB1C9C
:1010A0001B78002B0ED07B689B000F4A944663444C
:1010B0007B6140233B617B698022920113433A6943
:1010C0001A600DE07B689B00074A94466344FB600E
:1010D0004023BB60FB68C02292011343BA681A60C8
:1010E000C046BD4606B080BD04C0014080B582B098
:1010F00000AF7860D0231B0601217A6891400A0076
:101100009A62D0231B0601217A6891400A009A61F5
:101110007B6805211800FFF753FFC046BD4602B0AB
:1011200080BD000080B586B000AF0B237B607B687C
:101130000D4A944663449B007B61EFF310833B614F
:1011400072B63B69FB607B69BB60BB681B685A4237
:101150005341DBB2002BF8D1BFF35F8FFB6818005F
:10116000BD4606B080BDC0464000003480B588B0A2
:1011700000AF78600B23FB60FB680B4A9446634426
:101180009B00FB617B68BB61FB697B61BFF35F8F89
:101190007B6900221A60BB693B613B6983F310885D
:1011A000C046BD4608B080BD4000003480B582B066
:1011B00000AF786039603B68DB087A68D3181B7829
:1011C00019003B680722134001229A4013000B408C
:1011D0005A1E9341DBB21800BD4602B080BD80B5F7
:1011E00086B000AFF860B9607A60FFF79BFF03003C
:1011F0007B61BA68FB6811001800FFF7D7FF031E78
:1012000005D0BA687B681100180002F033FBBB6898
:10121000DB08FA68D3181978BB680722134001224B
:101220009A401300DAB2BB68DB08F868C3180A43B7
:10123000D2B21A707B691800FFF798FFC046BD460E
:1012400006B080BD80B588B000AFF8607A603B60C2
:101250000B23FB180A1C1A70FFF764FF03007B6165
:1012600001235B42FB617B68BB6125E0BA69FB68D7
:1012700011001800FFF79AFF03001A0001235340E2
:10128000DBB2002B15D0BB69DB08FA68D3181978DC
:10129000BB690722134001229A401300DAB2BB69EE
:1012A000DB08F868C3180A43D2B21A70BB69FB6145
:1012B00006E0BB690133BB61BA693B689A42D5D984
:1012C0007B691800FFF752FFFB69002B08DA0B233C
:1012D000FB181B78002B03D0BB6A180002F0CAFA77
:1012E000FB691800BD4608B080BD000080B500AFA6
:1012F000044B1B68022213405A1E9341DBB21800B4
:10130000BD4680BD00C0064080B584B000AF00235C
:10131000FB600FE0FB687B607B680A4A944663448D
:101320009B00BB60BFF35F8FBB6800221A60FB6845
:101330000133FB60FB681F2BECD9C046BD4604B0EF
:1013400080BDC0464000003480B582B000AF094B7C
:101350001B785A1CD1B2074A11707B60054B1B7871
:10136000172B02D9034B10221A707B681800BD4658
:1013700002B080BDE805002080B584B002AF020055
:10138000FB1D1A70FB1D19780548064B00931F239F
:101390001822FFF757FF03001800BD4602B080BDBA
:1013A000A80C002024C9001080B582B000AF78607E
:1013B0007B68054A944663445A425341DBB21800A5
:1013C000BD4602B080BDC0460080FCBF80B582B083
:1013D00000AF78607B681800FFF7E6FF7B681800B5
:1013E000BD4602B080BD80B58AB000AFF860B9607C
:1013F0007A601A00FB1C1A70FB681800FFF7E6FF02
:1014000003002C331A00BB68053B59017B68013B84
:10141000DB001943FB1C1B78002B01D0022300E0EA
:1014200000231943FB1C1B78012B01D1042300E08E
:1014300000230B437A623B626E23FB617B6A1A686E
:101440003B6A5340FA6913407A6ABA617B61BB69AF
:101450008022520113437A691A60C046BD460AB021
:1014600080BD000080B584B000AF7860064BFB60A3
:101470007B68BB60FB68802292011343BA681A60E4
:10148000C046BD4604B080BD00C0004080B584B0F9
:1014900000AF7860094BFB607B68BB60FB68C022D3
:1014A00092011343BA681A60044B9B68DB437A6865
:1014B0001340F9D1C046BD4604B080BD00C0004015
:1014C00080B582B000AF78607B681800FFF76CFFD2
:1014D000031E02D080231B0401E08023DB031800DD
:1014E000FFF7C0FFC046BD4602B080BD80B582B0E8
:1014F00000AF78607B681800FFF756FF031E02D02C
:1015000080231B0401E08023DB031800FFF7BEFFEC
:10151000C046BD4602B080BD80B586B000AF7860E1
:101520003960062002F0A8FB031E01D1002338E039
:101530007B681800FFF7C4FF7B681800FFF7D6FF31
:101540007B680021180000F08FF83A687B68110072
:10155000180000F02DF803007B6178680023012259
:101560000821FFF740FF7B681800FFF72FFF0300FB
:101570000E4A1A637B681800FFF728FF03002C331C
:101580003B611023FB603B69802292011343FA68A0
:101590001A607B681800FFF719FF030003229A64A2
:1015A0007B691800BD4606B080BDC046010300003F
:1015B00080B588B000AF78603960062002F05CFB2F
:1015C0000300DB003968180004F0E6FD03007B61CE
:1015D0007B69DB09FB61FB69002B04D10123FB6103
:1015E0000023BB610EE0FB691D4A934204D91D4BE9
:1015F000FB610023BB6105E07B697F22134001335F
:101600005B08BB617B681800FFF7E0FE0300FA6926
:101610005A627B681800FFF7D9FE0300BA699A6224
:101620007B681800FFF7D2FE03002C333B610023D8
:10163000FB603B69802292011343FA681A6006201E
:1016400002F01AFB03009800FB699A01BB69D318EA
:10165000190004F0A1FD03001800BD4608B080BDCC
:10166000FEFF0000FFFF000090B583B000AF786080
:101670000A00FB1C1A70FB1C1B78002B01D00A24EB
:1016800001E080235C007B681800FFF78DFE0200FC
:10169000034B5200211CD152C046BD4603B090BD41
:1016A0009C11002090B583B000AF386079603B6832
:1016B0007C6818002100BD4603B090BD90B585B090
:1016C00000AFF8603A607B603B687C68002C05DA0C
:1016D000074B084A08483F2102F0A6F8FA683B6821
:1016E0007C6813605460C046BD4605B090BDC046DE
:1016F00040C90010BCCC00105CC90010F0B587B028
:1017000000AF386079603B687C6818002100FFF703
:10171000C9FF03000C003B617C617B691D00002355
:101720001E002B00FB600D4B5B6ABB60BA68FB6858
:101730009A420AD3094B9A6A3B699A4203D2BA6821
:10174000FB689A4201D0012300E000231A1C012308
:101750001340DBB21800BD4607B0F0BD00400540A5
:1017600090B585B000AF786001F0CAF803000C00B6
:101770000822B9181A0023000800FFF79FFF7A68B3
:10178000BB68FC68136054607868BD4605B090BDC6
:1017900090B58BB000AFF8603A607B603B687C68C6
:1017A00018002100FFF77EFF03000C00BB61FC6105
:1017B000B969FA69BB6BFC6B5B1854413B627C6294
:1017C000FA697B6A9A4207D8FA697B6A9A4208D119
:1017D000BA693B6A9A4204D901235B42DC173B6237
:1017E0007C623B6A7C6A1022B9181A002300080048
:1017F000FFF764FFFA683B697C6913605460F8681E
:10180000BD460BB090BD90B589B002AFF8603A60AC
:101810007B601023FB181800FFF7A2FFF8683969F6
:101820007A693B687C680093019413000A00FFF713
:10183000AFFFF868BD4607B090BDF0B585B000AF0A
:10184000B860F9603A607B603B687C6818002100F2
:10185000FFF728FF05000E00BB68FC681800210098
:10186000FFF720FF03000C00ED1AA6412B00340007
:1018700018002100BD4605B0F0BD90B589B004AF99
:10188000B860F9607A603B6000F0A0FA0100BB68C4
:10189000FC682022BA18127802923A6801927A689B
:1018A00000921A002300080000F06CFD03001800ED
:1018B000BD4605B090BD80B582B000AF786000F045
:1018C00085FA02007B681900100000F01DFE03007D
:1018D0001800BD4602B080BD80B582B000AF786010
:1018E0000A00FB1C1A70FB1C1B78002B05D07B68C0
:1018F0001B7BFA1C12789A4205D9094B094A0A48FF
:10190000692101F091FF7B681968FB1C1A781300AC
:101910005B009B18033BCB181800BD4602B080BD8E
:10192000A0C9001048CC0010BCC9001080B584B01C
:1019300000AF786008001100FB1C021C1A70BB1C71
:101940000A1C1A70FB1C1A787B6811001800FFF73C
:10195000C3FF0300FB60FB1C1B78002B05D11F4B52
:101960001F4A2048702101F05FFFBB1C1B78002B31
:1019700005D11D4B1A4A1B48712101F055FFFA1C75
:10198000BB1C12781B789A4205D1184B144A154893
:10199000722101F049FFBB1C1A787B681100180006
:1019A000FFF79AFF0300BB60BB68FA1C12789A70BD
:1019B000FB681B78002B04D1FB68BA1C12781A70E4
:1019C00007E0FB681A78BB685A70FB68BA1C12788B
:1019D0001A70C046BD4604B080BDC04608CA00109B
:1019E00034CC0010BCC9001014CA001020CA00106A
:1019F00090B583B000AF786008001100FB1C021C9A
:101A00001A70BB1C0A1C1A70FB1C1B78002B02D11D
:101A1000BB1C1B7827E0BB1C1B78002B02D1FB1CD6
:101A20001B7820E07B685C687B689868BB1C1A7830
:101A3000FB1C1B781900A047031E0AD0BB1C1A7898
:101A4000FB1C19787B681800FFF770FFFB1C1B78E4
:101A500009E0FB1C1A78BB1C19787B681800FFF79B
:101A600065FFBB1C1B781800BD4603B090BD80B558
:101A700084B000AF78607B689B7B002B01D1002392
:101A800026E00F217B187A68927B1A707B181A78EF
:101A90007B6811001800FFF71FFF0300BB60BB68E5
:101AA0005A787B689A737B689B7B002B02D17B689A
:101AB0000022DA73BB6800229A70BB689A78BB6810
:101AC0005A70BB685A78BB681A700F23FB181B78D2
:101AD0001800BD4604B080BD80B584B000AF78600A
:101AE0000A00FB1C1A70FB1C1B78002B05D1164B3F
:101AF000164A1748A62101F097FEFB1C1A787B684E
:101B000011001800FFF7E8FE0300FB60FB680022ED
:101B10009A70FB689A78FB685A70FB685A78FB6881
:101B20001A707B68597BFB1C1A787B681800FFF7DA
:101B30005FFF03001A007B685A737B685B7B1800A9
:101B4000BD4604B080BDC04638CA001090CC00101D
:101B5000BCC9001080B582B000AF78607B685B7B49
:101B60001800BD4602B080BD80B582B000AF78607D
:101B70000A00FB1C1A707B685B7BFA1C12789A4285
:101B80000AD0FB1C1A787B6811001800FFF7A4FE2E
:101B900003009B78002B01D0012300E000231A1CD6
:101BA00001231340DBB21800BD4602B080BD000027
:101BB00080B582B000AF78600A00FB1C1A70FB1C75
:101BC0001B78002B08D0FB1C1A787B6811001800CA
:101BD000FFF7CAFF031E05D00E4B0F4A0F48F7212F
:101BE00001F022FE7B68DB7B002B0AD07B68DA7B6E
:101BF0007B6811001800FFF76FFE0200FB1C1B78CA
:101C000053707B68FA1C1278DA73C046BD4602B086
:101C100080BDC0463CCA0010D4CC0010BCC9001026
:101C200080B500AF034B5B685A1E9341DBB21800CE
:101C3000BD4680BDFC05002080B582B000AF786055
:101C40000A00FB1C1A70FB1C1B78002B06D07B685B
:101C50001B681B7BFA1C12789A4205D9094B0A4A69
:101C60000A483B2101F0E0FD7B689A68FB1C1B7869
:101C700007498C4663441B01D3181800BD4602B0C7
:101C800080BDC04660CA001054CC001084CA001049
:101C9000FFFFFF0F80B582B000AF78600A00FB1C29
:101CA0001A70FB1C1B78002B06D07B681B681B7B03
:101CB000FA1C12789A4205D9074B084A0848402175
:101CC00001F0B2FD7B68DA68FB1C1B78013BD3187E
:101CD0001800BD4602B080BD60CA0010E4CC001000
:101CE00084CA0010B0B584B000AF7860080011005D
:101CF000FB1C021C1A70BB1C0A1C1A707B68FB6060
:101D0000FB1C1A78FB6811001800FFF795FF030011
:101D10005C681B6818002100FFF7C4FC04000D007C
:101D2000BB1C1A78FB6811001800FFF785FF030041
:101D30001A685B6810001900FFF7B4FC02000B0082
:101D40000121AB4204D801D1A24201D80023191CC1
:101D5000CBB21800BD4604B0B0BD80B582B000AFB4
:101D60000200FB1D1A70BB1D0A1C1A70FB1D1B789C
:101D70001A02BB1D1B7813431800BD4602B080BD7C
:101D800080B500AFFFF74CFF03001A00012353405A
:101D9000DBB2002B0BD00A4B1868094B094A102103
:101DA00001F053FA064B0321180000F0B9FA064B74
:101DB0000A21180001F054F8C046BD4680BDC04657
:101DC000FC050020E51C00106811002080B500AF64
:101DD000FFF726FF031E05D1044B054A05485C2189
:101DE00001F022FD044B1800BD4680BDBCCA0010A6
:101DF00060CC001084CA0010FC050020F0B589B04A
:101E000000AFF8603A607B60382108203B185B180F
:101E10001B78002B1FD0FB681A683B185B181B78D7
:101E200019001000FFF7A0FE03001A000123534021
:101E3000DBB2002B05D13A4B3A4A3B48652101F011
:101E4000F3FC1F23FB18382208218C46BC44624453
:101E500012781A7008E0FB681B681F22BC18180073
:101E6000FFF705FE030023701F26BB191B78002B0C
:101E70004FD0BB191A78FB6811001800FFF7DCFE81
:101E80000300BB61BA693B687C6813605460BB693E
:101E9000BA6B9A60BB69FA6BDA60FB681A68BB19A7
:101EA0001B7819001000FFF717FE03001A00BB197A
:101EB0001B7893422DD1FB681B7D19001723FD1859
:101EC0003B687C681A002300080000F09FFE0300B6
:101ED0002B701723FB181B78002B12D03C230822F1
:101EE0009446BC4463441B7801225340DBB2002B70
:101EF00007D0FB681A68BB191B781900100001F0A5
:101F00000FFBBB6C002B04D0BB6C1722BA181278E5
:101F10001A701F23FB181B781800BD4609B0F0BDCE
:101F2000E0CA001078CC001084CA0010F0B5AFB041
:101F300006AF7860D44B7A689200D3588C22BA18D6
:101F400013601023FB181800FFF70AFC00239822E7
:101F5000BA18136000230024BB60FC6000239422A5
:101F6000BA1813609F23FB1800221A708C23FB18E9
:101F70001B685B68FB66EFF31083BB6672B6BB6ED3
:101F80007B66FB6E3B663B6E1B685A425341DBB27D
:101F9000002BF8D1BFF35F8F7B6E8822BA181360D5
:101FA0008C26BB191B681B6887257C191800FFF756
:101FB000D1FD030023707B191B78002B00D180E03A
:101FC0007B191A78BB191B6811001800FFF734FE43
:101FD00003008022B9180B60BB181B685C681B6883
:101FE000386979691A002300FFF727FC03000C0009
:101FF000002C55DC01D1002B52D18C23FB181B681F
:102000001B687F257C190021180001F067FA030086
:1020100023707A198723FB1812781B789A4205D00F
:102020009A4B9B4A9B488C2101F0FEFB8022BB18F7
:102030001B685C681B68BB60FC60BB181B689B6806
:10204000982178180360BB181B68DB689422BA18C3
:1020500013607B181B68002B05D18F4B8C4A8D4871
:10206000902101F0E1FB8723FB181A788C243B199F
:102070001B6811001800FFF70DFE020093217B186A
:1020800012781A707F23FB181A787B181B781100BE
:102090001800FFF762FE02003B191B681A6110E08E
:1020A0008023FB181B685C681B6879681A00230092
:1020B000080000F0ABFD031E03D09F23FB18012294
:1020C0001A708C257B191B685B68FB658823FB18DD
:1020D0001B68BB65FB6D7B65BFF35F8F7B6D00226B
:1020E0001A60BB6D3B653B6D83F3108898243B19E8
:1020F0001B68002B00D108E18723FB181A78932373
:10210000FB181B7811001800FFF727FE9423FB181B
:102110001A683B191B681100984703000C003B67C5
:102120007C677B191B685B68FB64EFF31083BB64FF
:1021300072B6BB6C7B64FB6C3B643B6C1B685A42A5
:102140005341DBB2002BF8D1BFF35F8F7B6C882249
:10215000BA1813607B6F002B45DA8C22BB181B6802
:102160001B69002B3FD0BB181B681C698723FB1819
:102170001A789323FB181B7811001800FFF7EDFD68
:1021800003009C4205D0454B414A42489F2101F043
:102190004BFB3B6F7C6F00225942A2411823F81879
:1021A000BB68FC68009101921A002300FFF7F0FA67
:1021B000BB69FC698C22BA181168002204920122C2
:1021C00003928722BA18127802929422BA181268DF
:1021D00001929822BA18126800921A00230008008F
:1021E000FFF70CFE74E07B6F002B05DC7B6F002B90
:1021F00056D13B6F002B53D08C22BB181B681B6938
:10220000002B4DD0BB181B681C698723FB181A785C
:102210009323FB181B7811001800FFF79EFD0300A5
:102220009C4205D01D4B1A4A1A48A22101F0FCFA23
:102230002023FB181800FFF793FA3B6F7C6F2822CE
:10224000B818396A7A6A0093019413000A00FFF7FC
:102250009FFABB6AFC6A8C22BA18116800220492A9
:10226000012203928722BA18127802929422BA1895
:10227000126801929822BA18126800921A0023007C
:102280000800FFF7BBFD23E04C11002008CB001035
:10229000A0CC001084CA001020CB00102CCB001062
:1022A0008C243B191B681A6887257B191B78190039
:1022B0001000FFF77DFC7B191A783B191B68110091
:1022C0001800FFF7E7FC03001A780132D2B21A7047
:1022D0008C217B181B6800221A617B181B685B68C5
:1022E000FB638823FB181B68BB63FB6B7B63BFF33B
:1022F0005F8F7B6B00221A60BB6B3B633B6B83F38E
:1023000010889F23FB1801221A709F23FB181B784B
:10231000002B00D015E6C046BD4629B0F0BDC04632
:1023200080B584B000AF786039603B68180000F079
:10233000D1FA3B68180000F041FD0F4A3B681100DC
:10234000180000F0D3FBFEF7FFFF0300FB60FB6803
:102350000A4A944663449B001A007B685A603B68B3
:10236000DAB27B681A75064B3A6892007968D150E8
:10237000C046BD4604B080BD2D1F00104000003493
:102380004C110020F0B59FB006AF7861BA60FB60D9
:102390001F23FB1800221A705B23FB1800221A70FF
:1023A0007B695B687B64EFF310833B6472B63B6CC4
:1023B000FB637B6CBB63BB6B1B685A425341DBB254
:1023C000002BF8D1BFF35F8FFB6B7B655326BD19E4
:1023D000BB68FC6879691F22BA1804920022039234
:1023E00000220292FA6F0192BA6F00921A00230043
:1023F0000800FFF703FD03002B70BB191B78002BAF
:102400000BD0BB191A787B6911001800FFF742FC4A
:1024100002005B23FB1812781A707B695B687B6390
:102420007B6D3B637B6BFB62BFF35F8FFB6A0022BC
:102430001A603B6BBB62BB6A83F310885323FB18A3
:102440001B78002B02D101235B4258E01F23FB18AD
:102450001B78002B0BD15323FB181A785B23FB1836
:102460001B7811001800FFF778FC030000E0002340
:10247000FB651F23FB181B78002B3FD07823082215
:102480009446BC4463441B78002B37D0F96FFA6D37
:10249000BB6F1000984703000C00BB64FC64BB6C6E
:1024A000FA6C134302D10023FB6527E0FB6C002B81
:1024B0000FDABB6CFC6C00225942A2410823F818C9
:1024C000BB68FC68009101921A002300FFF760F9D5
:1024D00062E72023FB181800FFF742F9BB6CFC6C85
:1024E0003800396A7A6A0093019413000A00FFF7F2
:1024F0004FF93B687C68BB60FC604DE7FB6D1800E2
:10250000BD4619B0F0BD0000F0B58FB000AF7860E7
:1025100039603723FB1800221A707B685B68BB6246
:10252000EFF310837B6272B67B6A3B62BB6AFB612E
:10253000FB691B685A425341DBB2002BF8D1BFF351
:102540005F8F3B6A3B632F217B183A681A707B6868
:102550001A687B181B7819001000FFF705FB031E93
:1025600038D07B681B693A689A4207D1294C2A4ABD
:10257000852359002948230001F056F93B681A0ABF
:102580002E243B191A702F257B191A787B681100AD
:102590001800FFF77FFB03001B783A1912789A4264
:1025A00020D17B681A683726BC197B191B78190063
:1025B000100000F0B5FF03002370BB191B78002B3F
:1025C00010D1174C144A1223FF331900134823006B
:1025D00001F02AF97B681B693A689A4202D17B684C
:1025E00000221A617B685B68BB613B6B7B61BB69E6
:1025F0003B61BFF35F8F3B6900221A607B69FB6020
:10260000FB6883F310883723FB181B781800BD463E
:102610000FB0F0BD98CB0010F8CC001084CA0010A9
:10262000BCCB001090B58DB000AF78603960174B0F
:102630001B68BB61EFF310837B6172B67B693B6102
:10264000BB69FB60FB681B685A425341DBB2002B3D
:10265000F8D1BFF35F8F3B69FB620C4B1B68BB6219
:10266000FB6A7B62BB6A3B62BFF35F8F3B6A0022FF
:102670001A607B6AFB61FB6983F3108840BF00230B
:10268000002418002100BD460DB090BD6811002047
:1026900090B597B002AF38607960FDF7E4FD031E96
:1026A00003D0474B180001F0E5F83B687C68180040
:1026B0002100FEF7F7FF03000C003B647C643B6CD9
:1026C0007C6C06214942CA175B185441BB64FC6408
:1026D000FA6C7B6C9A4207D8FA6C7B6C9A4207D1F1
:1026E000BA6C3B6C9A4203D900230024BB64FC649F
:1026F000BB6CFC6C0822B9181A0023000800FEF716
:10270000DDFF1023FB181800FFF72AF8BB68FC68F0
:10271000386979691A002300FFF78FF803000C006D
:10272000002C02DC41D1002B3FD0264AB868F96862
:10273000002300930023FFF7A0F8031E35DB27E0FA
:10274000214B1B68BB62EFF310837B6272B67B6A1E
:102750003B62BB6AFB61FB691B685A425341DBB2B7
:10276000002BF8D1BFF35F8F3B6AFB63164B1B68EE
:10277000BB63FB6B7B63BB6B3B63BFF35F8F3B6BED
:1027800000221A607B6BFB62FB6A83F3108820BF18
:10279000BB68FC6818002100FEF7B0FF03001A00B8
:1027A00001235340DBB2002BCAD13B687C68180080
:1027B000210000F0D5F8C046BD4615B090BDC0461A
:1027C000E4CB0010252600106811002090B585B0DC
:1027D00000AF386079600823F9183B687C681A00FC
:1027E00023000800FFF70FF8BB68FC681800210001
:1027F000FFF74EFFC046BD4605B090BDB0B582B0F4
:1028000000AF78607B681C0000231D00FA22920054
:1028100000232000290004F02FFB03000C00180007
:102820002100FFF7D3FFC046BD4602B0B0BD000097
:1028300090B587B002AF38607960124A386879681D
:10284000002300930023FFF718F80300FB60FB68E8
:10285000002B07DC3B687C6818002100FEF74EFF68
:1028600003000BE020BFFB681800FFF724F83B686B
:102870007C6818002100FEF741FF03001800BD46E8
:1028800005B090BD2526001090B583B000AF38602C
:1028900079603B687C6818002100BD4603B090BD9C
:1028A00080B582B000AF7860C046BD4602B080BD42
:1028B00080B582B000AF78607B681F221A40044B5D
:1028C000012191400A001A60C046BD4602B080BD99
:1028D00080E200E080B582B000AF78607B681800CD
:1028E000FFF7DEFF044A7968044B1800FEF777FC17
:1028F000C046BD4602B080BD70CD001098110020CA
:10290000F0B587B000AF1548406A78611348806A17
:1029100038611248406AF86078698446F8688445EE
:1029200002D0F8687861F1E7C04678693860002025
:102930007860386804000020030038690100002036
:102940000200180008430500230013431E002B005B
:10295000340018002100BD4607B0F0BD004005401E
:10296000F0B589B000AF386079603B687C681800CA
:102970002100FFF789FF03000C003B617C617B694C
:102980001D0000231E002B00FB600E4B5B6AFB61E9
:1029900002E00C4B5B6AFB61FA69FB689A42F8D370
:1029A00002E0084B5B6AFB61FA69FB689A4204D15A
:1029B000044B9A6A3B699A42F3D3C046BD4609B0BC
:1029C000F0BDC0460040054080B582B000AF7860E1
:1029D0007B681800BD4602B080BD000080B58EB097
:1029E00000AFEFF305833B633B6B3F221340103B8B
:1029F000FB62FB6A1800FFF753FF00237B630A2387
:102A00003B613B69344A944663449B00BB62BB6AAA
:102A10003B62EFF31083FB6172B6FB69BB613B6AFB
:102A20007B617B691B685A425341DBB2002BF8D1B2
:102A3000BFF35F8FBB697B62284B0121FA6A91402B
:102A40000A005A63264B1B781A00FB6ADA4013000F
:102A50000122134024D0214B5A6A224BF96A890083
:102A6000CB589A4212D3204BFA6A9200D3587B6318
:102A70000122FB6A9A401300DBB2DB43DBB2184A47
:102A800012781340DAB2164B1A7009E0134A134950
:102A9000FB6A04339B009A58FB6A04339B005A502C
:102AA000BB6AFB607B6ABB60FB687B60BFF35F8FC8
:102AB0007B6800221A60BB683B603B6883F3108828
:102AC0007B6B002B03D0FA6A7B6B10009847C046E3
:102AD000BD460EB080BDC0464000003400400540F9
:102AE0009B11002074110020980B002080B590B03D
:102AF00000AF786039607B681800FFF7D1FE7B6813
:102B00001800FFF761FF0300FB630A233B623B6A87
:102B1000394A944663449B00BB63BB6B3B63EFF352
:102B20001083FB6272B6FB6ABB623B6B7B627B6AA3
:102B30001B685A425341DBB2002BF8D1BFF35F8FC1
:102B4000BB6A7B633B68002B25D0FB6B180001F050
:102B500071F90200294B9A4217D0284AFB6B1100E9
:102B6000180001F07BF9FB6B0121180001F0ECF873
:102B700001227B689A401300214AFA61BB61FB691C
:102B8000802292011343BA691A601E4B7A68920040
:102B90003968D1501CE01B4B7A6892000021D1505B
:102BA00001227B689A401300DBB2DB43DBB2164A9A
:102BB00012781340DAB2144B1A70104AFB6B1100F2
:102BC000180001F057FAFB6B0021180001F0BCF867
:102BD000BB6B7B617B6B3B617B69FB60BFF35F8F92
:102BE000FB6800221A603B69BB60BB6883F31088F6
:102BF000C046BD4610B080BD40000034DD29001045
:102C000038400540980B00209B110020F0B597B08C
:102C100000AFF8603A607B60FFF772FE03000C00C3
:102C2000BB64FC643B687C6818002100FFF72CFE45
:102C300003000C003B647C647A6CFB6C9A420CD8F9
:102C40007A6CFB6C9A4203D13A6CBB6C9A4204D802
:102C50005723FB1801221A709BE05723FB18002210
:102C60001A700A233B623B6A4D4A944663449B00B8
:102C7000FB63FB6B3B63EFF31083FB6272B6FB6A93
:102C8000BB623B6B7B627B6A1B685A425341DBB27F
:102C9000002BF8D1BFF35F8FBB6ABB633723FB18F0
:102CA000404A12781A700122FB689A401300DAB287
:102CB0003C4B1B781343DAB23A4B1A703A4B012162
:102CC000FA6891400A005A6337493A6CFB6804334A
:102CD0009B005A507B6C1D0000231E002900334BC3
:102CE000FA689200D150304B1B6A0121FA6891407A
:102CF0000A0013400DD12C4B1B6C0121FA68914046
:102D00000A00134035D12A4B2A4A2B48C12100F032
:102D10008BFDFFF7F5FD03000C007A6CA24228D86A
:102D20007A6CA24202D13A6C9A4222D85723FB18FD
:102D300001221A701B4B1B7837243A1912789A42D9
:102D400017D0194B0121FA6891400A001A62164BFC
:102D50000121FA6891400A005A63FB681800FFF7E6
:102D600033FE03001800FFF7A3FD0E4B3A1912784B
:102D70001A70FB6BFB61BB6BBB61FB697B61BFF3D3
:102D80005F8F7B6900221A60BB693B613B6983F3FB
:102D900010885723FB181B781800BD4617B0F0BDEC
:102DA000400000349B1100200040054074110020B9
:102DB00094CD0010F8CD0010B8CD001080B58EB0C5
:102DC00000AF78607B681800FFF76AFD0A23FB609C
:102DD000FB68204A944663449B007B637B6BFB61EA
:102DE000EFF31083BB6172B6BB697B61FB693B612A
:102DF0003B691B685A425341DBB2002BF8D1BFF349
:102E00005F8F7B693B63144B01217A6891400A0014
:102E10001A6201227B689A401300DBB2DB43DBB20B
:102E20000E4A12781340DAB20C4B1A707B6BFB62BD
:102E30003B6BBB62FB6A7B62BFF35F8F7B6A0022E6
:102E40001A60BB6A3B623B6A83F31088C046BD468A
:102E50000EB080BD40000034004005409B110020B2
:102E600080B584B000AF786039603B68FB60FB6878
:102E7000054A944663449B001A007B681A60C0466A
:102E8000BD4604B080BDC0464000003490B583B05C
:102E900000AF386079603B687C6818002100BD464F
:102EA00003B090BD90B585B000AFF8603A607B602C
:102EB0003B687C68002C05DA074B084A08483F212C
:102EC00000F0B2FCFA683B687C6813605460C0464E
:102ED000BD4605B090BDC04614CE001000CF001016
:102EE00030CE001090B585B000AF7860FFF708FDD8
:102EF00003000C000822B9181A0023000800FFF78D
:102F0000D1FF7A68BB68FC68136054607868BD467E
:102F100005B090BDF0B58BB000AFF8603A607B6053
:102F20003B687C6818002100FFF7B0FF03000C002D
:102F3000BB61FC613B6C1D0000231E00FA22920065
:102F400000232800310003F097FF03000C00190054
:102F50002200BB69FC695B1854413B627C62FA69E0
:102F60007B6A9A4207D8FA697B6A9A4208D1BA69A1
:102F70003B6A9A4204D901235B42DC173B627C62C4
:102F80003B6A7C6A1022B9181A0023000800FFF778
:102F900089FFFA683B697C6913605460F868BD4634
:102FA0000BB0F0BD90B587B002AF786039600823F0
:102FB000FB181800FFF796FF7968BB68FC683A6851
:102FC00000921A0023000800FFF7A4FF7868BD46AE
:102FD00005B090BD90B583B000AF78607C68FEF717
:102FE000B3F9030019002000FFF73AFF7B68FF22C6
:102FF0001A71BFF35F8FC046BD4603B090BD90B558
:1030000083B000AF78607C68FEF79EF9030019007A
:103010002000FFF725FF7B68FF221A717B680022E2
:103020005A71BFF35F8FC046BD4603B090BD80B5F7
:1030300082B000AF78600120FEF79EF903001A000D
:103040007B681100180000F005F8C046BD4602B0CC
:1030500080BD000080B584B000AF786039603B6807
:10306000FB60FB68064A944663449B001A007B6839
:103070001A60BFF35F8FC046BD4604B080BDC04636
:103080004000003480B582B000AF78600A00FB1CBD
:103090001A70FB1C1B78002B05D07B681B7BFA1C6D
:1030A00012789A4205D9094B094A0A48692100F069
:1030B000BBFB7B681968FB1C1A7813005B009B182C
:1030C000033BCB181800BD4602B080BD3CCF0010BA
:1030D000C4D0001058CF001080B584B000AF786025
:1030E00008001100FB1C021C1A70BB1C0A1C1A7081
:1030F000FB1C1A787B6811001800FFF7C3FF030060
:10310000FB60FB1C1B78002B05D11F4B1F4A20487E
:10311000702100F089FBBB1C1B78002B05D11D4BD7
:103120001A4A1B48712100F07FFBFA1CBB1C127865
:103130001B789A4205D1184B144A1548722100F0A9
:1031400073FBBB1C1A787B6811001800FFF79AFF0D
:103150000300BB60BB68FA1C12789A70FB681B788E
:10316000002B04D1FB68BA1C12781A7007E0FB68C8
:103170001A78BB685A70FB68BA1C12781A70C0467D
:10318000BD4604B080BDC046A4CF0010B0D0001032
:1031900058CF0010B0CF0010BCCF001090B583B056
:1031A00000AF786008001100FB1C021C1A70BB1CE9
:1031B0000A1C1A70FB1C1B78002B02D1BB1C1B784D
:1031C00027E0BB1C1B78002B02D1FB1C1B7820E0E6
:1031D0007B685C687B689868BB1C1A78FB1C1B7852
:1031E0001900A047031E0AD0BB1C1A78FB1C1978D3
:1031F0007B681800FFF770FFFB1C1B7809E0FB1CC5
:103200001A78BB1C19787B681800FFF765FFBB1C98
:103210001B781800BD4603B090BD80B582B000AFEA
:1032200078607B685B7B1800BD4602B080BD80B5CE
:1032300082B000AF78607B680121180000F04EF981
:1032400003001800BD4602B080BD80B584B000AF59
:10325000F860B9607A603B60BB68DAB2FB681A73E9
:10326000FB687A685A60FB683A689A60FB681800E5
:1032700000F004F8C046BD4604B080BD90B585B0EE
:1032800000AF78607B6800225A737B6801229A73D2
:103290007B681A7B7B68DA730F23FB1801221A7094
:1032A00013E00F243B191A787B6811001800FFF710
:1032B000E9FE020021007B181B780133DBB253705A
:1032C0007B181A787B1801321A707B681B7B0F22DF
:1032D000BA1812789A42E4D37B681A7B7B68110093
:1032E0001800FFF7CFFE030000225A70C046BD460B
:1032F00005B090BDF0B585B000AF78600A00FB1C4A
:103300001A70FB1C1B78002B0AD0FB1C1A787B68F8
:1033100011001800FFF7B6FE03005B78002B02D106
:10332000FB1C1B784AE00F26BB19FA1C12781A7096
:10333000FB1C1A787B6811001800FFF7A3FE02003F
:103340000E257B1952781A707B191A787B68110048
:103350001800FFF797FE02000D23FB1852781A7031
:103360007B191A787B6811001800FFF78BFE0400A8
:1033700000236370BB191A787B6811001800FFF7EF
:1033800081FE030062785A707B191A78BB1919788C
:103390007B681800FFF702FF03001C000D23FB18D9
:1033A0001A787B6811001800FFF7A4FF03001A00C9
:1033B0007B6821001800FFF7F1FE03001800BD46EE
:1033C00005B0F0BD90B585B000AF78600800110081
:1033D000FB1C021C1A70BB1C0A1C1A70FB1C1B78FD
:1033E000002B05D1384B394A3948382100F01CFAF6
:1033F000FB1C1A787B6811001800FFF743FE0300DE
:103400005B78002B05D0334B304A31483A2100F02D
:103410000BFAFB1C1A787B6811001800FFF732FECC
:1034200003009B78002B05D02B4B284A28483B21D2
:1034300000F0FAF9FB1C1A787B6811001800FFF7FE
:1034400021FE03001A780F23FC187B681100180076
:10345000FFF750FF03002370BB1C1B78002B12D01A
:103460007B68DB7B002B0AD07B68DA7B7B681100F2
:103470001800FFF707FE0200FB1C1B7853707B68E7
:10348000FA1C1278DA730F22BB181B78002B09D0B4
:10349000BB181A787B6811001800FFF7F3FD0300D2
:1034A00000229A70FB1C1A787B6811001800FFF745
:1034B000E9FD030000225A700F23FB181B78180047
:1034C000BD4605B090BDC046D4CF0010D0D000108E
:1034D000DCCF001014D000103CD00010B0B584B088
:1034E00000AF78600A00FB1C1A700F257C197B68FE
:1034F0001800FFF792FE03002370FB1C1A782C00C3
:103500003B1919787B681800FFF75CFF03001A006D
:103510007B685A733B191B781800BD4604B0B0BDD8
:10352000B0B588B000AF78600A00FB1C1A70FB1CB5
:103530001B78002B01D1002390E07B685B7BFA1C99
:1035400012789A4205D17B681800FFF770FE0123BC
:1035500084E0FB1C1A787B6811001800FFF792FDCD
:103560000300BB61BB699B78002B01D1002375E090
:10357000BB699A787B6811001800FFF783FD030090
:103580007B617B691B78FA1C12789A4204D1BB6973
:103590005A787B691A7035E01F23FB187A69127814
:1035A0001A701E23FB1800221A701F23FB181A78AA
:1035B0007B6811001800FFF765FD03003B613B6964
:1035C0005B78FA1C12789A4208D1BB695A783B6939
:1035D0005A701E23FB1801221A7008E01F217B1865
:1035E0003A6952781A707B181B78002BDDD11E23A4
:1035F000FB181B78002B05D11A4B1B4A1B4867216F
:1036000000F012F9BB6900229A70BB699A78BB6915
:103610005A700F257C19FB1C19787B680122180051
:10362000FFF7D0FE030023707B685B7B7A1912786A
:103630009A4205D10E4B0C4A0C486D2100F0F4F86B
:103640007B68597B0F23FB181A787B681800FFF7FB
:10365000A5FD03001A007B685A7301231800BD46BC
:1036600008B0B0BD60D00010E4D00010DCCF001076
:1036700068D0001080B500AF00BEC046BD4680BD1A
:1036800080B584B000AF7860064BFB607B68BB60A0
:10369000FB68802292011343BA681A60C046BD4697
:1036A00004B080BD00C0004080B584B000AF786039
:1036B000094BFB607B68BB60FB68C022920113432F
:1036C000BA681A60044B9B68DB437A681340F9D1EF
:1036D000C046BD4604B080BD00C0004080B586B085
:1036E00000AF3A4B1800FFF7CBFF394B1800FFF73C
:1036F000DBFF384B7B6105E07B691B6898477B6982
:1037000004337B617A69344B9A42F5D300F016FAA0
:10371000324B1800FFF7C8FF314A40239367304A05
:1037200053672F4A13672E4AD3662E4B3B6120E026
:103730003B691B68002B13D03B691B68012B05D02C
:10374000294B2A4A2A48832100F06EF83B69BB6066
:10375000BB681800FFF753FCBB6808333B6108E007
:103760003B697B607B681800FFF734FC7B6808339B
:103770003B613A691F4B9A42DAD31F4B9B681A0090
:103780001E4B18001100C0231A0003F025FD1A4B30
:103790001A4A9A60FCF767FD031E00D000BEFDF7D1
:1037A000B3FD00F065FEFEF7EBFA154BFB6005E09C
:1037B000FB681B689847FB680433FB60FA68114B91
:1037C0009A42F5D3C046BD4606B080BDBFCDFBFED4
:1037D000FE7F3C00C8060020D8060020FFFFFF0146
:1037E00000F00140C0060020FCD00010D0D1001035
:1037F0001CD10010C806002000ED00E000000020F1
:10380000D8060020E006002080B582B000AF7860C6
:10381000FFF730FFFCE780B582B000AF78607B68CF
:103820001800FFF7F1FF0000B0B586B002AFF860F6
:10383000B9607A603B607B68002B01D00A4B00E0E6
:103840000A4B7A68002A01D07A6800E0074ABD680E
:10385000FC6839680648019200932B00220003F0AF
:10386000DDFE0120FFF7D0FF5CD100106CD100100D
:1038700070D100100FB480B582B000AF0B4B1800B0
:1038800003F0D4FD3B69002B0CD01423FB187B60A4
:103890007A683B691100180003F08EFE044B180093
:1038A00003F0C4FD0120FFF7AFFFC046B0D1001008
:1038B000C0D1001080B582B000AF0200FB1D1A70AD
:1038C000FB1D1B78052B03D0FB1D1B78042B01D19E
:1038D000012300E000231A1C01231340DBB218006F
:1038E000BD4602B080BD0000F0B5A3B000AF3963A3
:1038F000FA62BB620F232822BA18D218031C137075
:10390000BA6AA023FB181B689A4205D2864B874AE5
:1039100087482D21FFF788FFA023FB181A68BB6A90
:103920009A4201D90023FAE0BB6A3B6200237B6222
:103930003B6A7C6A1A00120EFA611B02BB61A0236B
:10394000FB181B683B6100237B613A697B69B8699E
:10395000F96902F063FC03000C0084203A1813603C
:103960000F2328229446BC4463441A7813005B005A
:103970009B189B006F4A9446634480217A18136019
:103980007B181B685B683A1812689A4204D97B1846
:103990001B683A1812685A600F2328229446BC44C8
:1039A00063441B781800FFF785FF031E16D03B6B9E
:1039B000012B13D18023FB181B68BB6703237B6794
:1039C000BB6FC022920113437A6F1A608023FB18E9
:1039D0001B689B6801221340F8D028E08023FB1865
:1039E0001B683B6780231B01FB663B6FC022920173
:1039F0001343FA6E1A600F2128243B195B181A78BA
:103A00004D4B9200D358002B11D04B4B58693B19AA
:103A10005B181A78484B9200D358190002F0BCFB8F
:103A200003000133FB67FB6F013BFDD1FB67802483
:103A30003B191A68FB6A5B01BA667B66E0233B664A
:103A4000BB6E1A687B6E53403A6E1340BA6EFA65CD
:103A5000BB65FB6D802252011343BA6D1A600F23C0
:103A600028229446BC4463441B781800FFF722FFC9
:103A7000031E1FD03B191B687B653B6B3B65032313
:103A8000FB647B6D1A683B6D5340FA6C13407A6D92
:103A9000BA647B64BB6C8022520113437A6C1A6057
:103AA0008023FB181B689B6801213A6B91400A0038
:103AB0001340F5D080217B181B683B6480231B01D9
:103AC000FB633B6C802292011343FA6B1A607B18F4
:103AD0001B6884217A1812685A60BB6A1D00002393
:103AE0001E002B0EFB602B02BB607B181B683B602B
:103AF00000237B603A687B68B868F96802F08EFB47
:103B000003000C00180021000F2328229446BC4417
:103B100063441A780100084B9200D1500123180029
:103B2000BD4623B0F0BDC046E0D10010DCD200108D
:103B3000F4D1001000800040AC0C002080B588B0AB
:103B400002AF0C2000F098FDFDF7D0FB031E11D052
:103B500000237B6107E03C4B7A6992003B49D150DE
:103B60007B6901337B617B69092BF4D9364B384A79
:103B70005A6266E0374B00229A6700F049FE364BE6
:103B80003B610123FB603B69C02292011343FA6849
:103B90001A60304B5B6C012BFBD1304BBB600323B5
:103BA0007B60BB68C022920113437A681A60294B7C
:103BB0009B6B012BFBD12A4A2A4802230093062340
:103BC000012100F0A1FC284A284802230093052384
:103BD000012100F099FC264A254B00931300002296
:103BE00002210420FFF780FE224A224B009313009B
:103BF000002201210520FFF777FE144A134B0093A2
:103C00001300002200210720FFF76EFE0F4A0F4B22
:103C100000931300002200210820FFF765FE0B4AE5
:103C20000B4B00931300002200210920FFF75CFEDC
:103C3000104A104B00931300002200210620FFF7CA
:103C400053FEBD4606B080BDAC0C0020006CDC020B
:103C50001BB70000008000403C80004030800040E6
:103C6000002F68590080024000389C1C00C00240B0
:103C7000001BB7004059730780B582B000AF020047
:103C8000FB1D1A70FB1D1A78034B9200D3581800C5
:103C9000BD4602B080BDC046AC0C002080B582B0ED
:103CA00000AF7860C046BD4602B080BD80B500AFB1
:103CB000024B9B681800BD4680BDC04600ED00E089
:103CC00080B582B000AF78607B6801221343180092
:103CD000BD4602B080BD80B582B000AF78607B6821
:103CE000012293431800BD4602B080BD80B58AB062
:103CF00000AFF860B9607A60FFF7D8FF0200FB6898
:103D000010339B00D318BA681A60BFF35F8F092382
:103D10007B617B690B4A944663449B007B627B68B2
:103D20003B627B6AFB61BFF35F8FFB6900221A6015
:103D30003B6ABB61BB6983F31088C046BD460AB0CD
:103D400080BDC0464000003480B582B000AF7860CE
:103D50000A00FB1C1A707B681800FFF79FFF012206
:103D60007B689A40FB1C1B781900100000F01CF8BF
:103D7000C046BD4602B080BD80B582B000AF78605D
:103D80007B681800FFF78AFF01227B689A40054B89
:103D90001B6813405A1E9341DBB21800BD4602B0A7
:103DA00080BDC04600E100E080B582B000AF786021
:103DB0000A00FB1C1A70FB1C1B78002B06D0074B5B
:103DC0007A681A60064B7A681A6002E0054B7A68D6
:103DD0001A60C046BD4602B080BDC04680E200E029
:103DE00000E100E080E100E080B582B000AF7860E3
:103DF0007B681800FFF752FF044B01217A6891405D
:103E00000A001A60C046BD4602B080BD00E200E074
:103E100080B582B000AF78607A68054BD21A2F2146
:103E2000002391425B41DBB21800BD4602B080BD69
:103E30001406002080B582B000AF78607B6818005F
:103E4000FFF72CFFFFF732FF02007B6810339B0067
:103E5000D3181B681800BD4602B080BD80B58AB07B
:103E600000AF786039607B681800FFF717FF0923FF
:103E7000BB60BB681B4A944663449B007B627B6AC1
:103E8000BB61EFF310837B6172B67B693B61BB69F9
:103E9000FB60FB681B685A425341DBB2002BF8D130
:103EA000BFF35F8F3B693B627B681800FFF7C2FF7F
:103EB0000300FB61FA690C4B9A4209D0FA693B682E
:103EC0009A4205D0094B0A4A0A486E21FFF7ACFC1A
:103ED0003A6A39687B681800FFF708FFC046BD469C
:103EE0000AB080BD40000034CD010010ECD20010BB
:103EF000B4D4001024D3001080B586B000AF786031
:103F000039607B687B613B683B613A697B69D31AA6
:103F1000043B5B08FB60FB68DB0A05D0084B094AE1
:103F200009488B21FFF780FCFB689BB25B055B0DAA
:103F30009BB2064A13439BB21800BD4606B080BD33
:103F400060D30010D0D4001024D3001000E0FFFF95
:103F500080B586B000AF786039607B687B613B6874
:103F60003B613A697B69D31A043B5B08FB60FB68E1
:103F7000DB0A05D00E4B0F4A0F489321FFF754FC84
:103F8000FB68DB0A9BB25B055B0D9BB20B4A1343DC
:103F90009AB27B681A80FB689AB27B680233084940
:103FA0000A4392B21A80C046BD4606B080BDC046E4
:103FB00060D30010DCD4001024D3001000F0FFFF09
:103FC00000F8FFFF80B584B000AF78607B681B8885
:103FD000DB0A9BB21C2B05D00D4B0E4A0E489921D3
:103FE000FFF722FC7B681B885B05FB60FB68002BEE
:103FF00002DA0A4A944663445B15FB60FB680233AD
:104000005B007A68D3181800BD4604B080BDC04676
:1040100070D30010F4D4001024D30010FFFF1F0051
:1040200080B584B000AF78603960084BFB603968B8
:10403000FA687B685B1A5B415A43120DFA607B6039
:10404000FB685BB21800BD4604B080BDAAAA0000A0
:1040500080B582B000AF7860054A7B681100180017
:10406000FFF7DEFF03001800BD4602B080BDC0466A
:104070001406002090B593B000AF78603960092332
:10408000FB60FB68854A944663449B00BB63BB6B43
:10409000FB61EFF31083BB6172B6BB697B61FB69A7
:1040A0003B613B691B685A425341DBB2002BF8D19C
:1040B000BFF35F8F7B697B63FFF7F8FD02007B68CE
:1040C00010339B00D3181B687B647A6C744B9A4244
:1040D00000D1D7E07A6C3B689A4200D1D2E07B6C89
:1040E0001800FFF795FE031E00D1CDE03323FC1826
:1040F0007B681800FFF740FE030023707B680021F7
:104100001800FFF721FEBFF35F8FFCF7ACF8030048
:10411000FB62FB6A002B0DD07B681033FA6A9A426F
:1041200008D0604C604A1E23FF3319005F4823000B
:10413000FFF77AFB00233B647B6C1800FFF7CBFD95
:104140000300BB62BB6AFB632723FC18FB6B1800F0
:10415000FFF77EFF0300237011E0FB6B3B64FB6BFA
:104160009B795BB2002B10DBFB6B9B795BB21A0077
:1041700013005B009B189B004D4A9B18FB63FB6B75
:104180009B683A689A42E8D100E0C046FB6B9B68A6
:104190003A689A4265D126217B18FA6B92791A7097
:1041A0000A00BB181B787F2B39D8BB1800229A56FF
:1041B00013005B009B189B003D4A9B183B623B6AC7
:1041C0009A68FB6B9A603B6ADA79FB6BDA713B6A3F
:1041D00006229A56FB6B9A713B6A9B795BB2002B65
:1041E0000EDBFB6B1C1D3B6A04331800FFF7EAFE75
:1041F000030019002000FFF77FFE03001A0001E012
:10420000BD231A02FB6B9A802A4B00229A563B6A06
:104210009A71284B2622BA1812781A7029E0FB6A84
:10422000002B16D13B6C002B06D03B6CFF229A7101
:104230003B6C214A9A8001E0194B7B641D4B0022A4
:104240009A56FB6B9A711B4B2722BA1812781A7078
:104250000FE0FB6B0433194A11001800FFF778FEDA
:1042600007E0174C104AA923590010482300FFF714
:10427000DBFA3323FB181A787B6811001800FFF76C
:1042800063FD01E0064B7B647A6B796C7B681800F8
:10429000FFF72CFDC046BD4613B090BD4000003472
:1042A000CD0100104CD4001004D5001024D3001010
:1042B000140600209911002000BDFFFF4E060020CB
:1042C00070D4001090B593B000AF78607B68180090
:1042D000FFF7F6FC0300FB63FB6B1800FFF798FD8C
:1042E000031E08D1584C594A7823FF331900584807
:1042F0002300FFF799FAFBF7B6FF0300BB63BB6B24
:10430000002B07D1534C514ABD235900504823007C
:10431000FFF78AFA0923BB61BB694F4A944663449D
:104320009B007B637B6BBB62EFF310837B6272B697
:104330007B6A3B62BB6AFB61FB691B685A42534163
:10434000DBB2002BF8D1BFF35F8F3B6A3B632F23B7
:10435000FC187B681800FFF77BFE03002370FFF753
:10436000A5FC0200BB6B9B00D3181B68FA6B9A423A
:1043700008D1FFF79BFC0200BB6B9B00D318374AA8
:104380001A6043E04723FB1800221A7000233B64A5
:104390002BE033493A6C13005B009B189B00CB1851
:1043A00006331B785BB22F22BA18127852B29A42A7
:1043B00018D12B493A6C13005B009B189B00CB185B
:1043C0000633FF221A7026493A6C13005B009B18D3
:1043D0009B00CB180433234A1A804723FB18012281
:1043E0001A7005E03B6C01333B643B6C032BD0D966
:1043F0004723FB181B78002B08D11B4C134A8C2336
:10440000FF33190012482300FFF70EFA174B002262
:104410009A567B689A71154B2F22BA1812781A7027
:104420007B6B7B613B6B3B617B69FB60BFF35F8FA9
:10443000FB6800221A603B69BB60BB6883F310888D
:10444000C046BD4613B090BD78D4001018D50010FA
:1044500024D30010A0D4001040000034CD0100107F
:104460001406002000BDFFFFACD4001099110020FD
:1044700080B584B000AF0B4B7B600B4BFB6000231F
:10448000BB6007E0FB681A1DFA607A681A60BB68B7
:104490000133BB60BB68072BF4D9C046BD4604B0EE
:1044A00080BDC0468080808000E400E080B584B09C
:1044B00000AF7860064BFB607B68BB60FB688022C6
:1044C00092011343BA681A60C046BD4604B080BD6D
:1044D00000C0004080B584B000AF7860094BFB603D
:1044E0007B68BB60FB68C02292011343BA681A6004
:1044F000044B9B68DB437A681340F9D1C046BD4644
:1045000004B080BD00C0004080B58EB000AFF86040
:10451000B9607A603B60B9680C2001F03DFE030091
:104520007B63796B0A005201521A93019B1ADB00DC
:104530005B189B011900786801F02EFE03003B63B5
:104540003B6B0F2B04D93A6BA0235B009A4205D931
:10455000424B434A43481621FFF766F93B68002B5C
:1045600008D03B68072B05D83B6C002B02D03B6C76
:10457000072B05D93C4B3A4A3A481921FFF754F921
:104580003A6C3B689A4205D9384B354A35481F2169
:10459000FFF74AF97B681B097A6B9A4205D9344BBD
:1045A0002F4A30482221FFF73FF93B681A043B6C41
:1045B0001B031343FB62FB681B68002B12DAFB68CA
:1045C0001B683F221340BA689A420BD1FB689B6874
:1045D0001B051B0D3A6B9A4204D1FB68DB68FB6A32
:1045E000002B37D0FB68234A934202D180239B01E2
:1045F00001E080235B01BB62BB6A1800FFF756FF36
:10460000BB6A1800FFF766FFFB68BA681A60FB68B0
:104610003A6B9A6021237B62FB6804333B627B6ABE
:10462000FB613B6AC02292011343FA691A60FB687E
:104630001B68002BFBDAFB68FA6ADA60FB6804335C
:10464000BB6108237B61BB69C022920113437A6975
:104650001A6000E0C046BD460EB080BD34D50010E3
:104660000CD6001050D500108CD50010D8D50010F5
:10467000F0D5001000C0024080B582B000AF786075
:10468000044B7A68802189000A43DA62C046BD463D
:1046900002B080BD0080054080B500AF034A044BE6
:1046A0001B685360C046BD4680BDC04600800540C3
:1046B0004411002080B590B000AF78600A00FB1C68
:1046C0001A70314B3B638023DB05FB623B6BC022DE
:1046D00092011343FA6A1A602C4BBB632C4B7B6329
:1046E000BB6B8022920113437A6B1A60E023DB04D8
:1046F000FB63FB1C1B78002B0AD0234BBB62FB6BBC
:104700007B62BB6A8022920113437A6A1A6009E0D5
:104710001D4B3B62FB6BFB613B6AC0229201134362
:10472000FA691A607B68002B0BD1174BBB618023A1
:104730001B067B61BB698022920113437A691A6070
:104740001EE07A6813005B019B1A9B009B181B01FB
:104750001A00104B1A600F4B1B680F4A934202D984
:104760000C4B0D4A1A60FFF797FF074B3B61802304
:10477000DB05FB603B69802292011343FA681A60F3
:10478000C046BD4610B080BD008005400800014015
:10479000FCFF010044110020FFFFFF0080B586B040
:1047A00000AFF860B9607A60164B7B618023DB054F
:1047B0003B617B69C022920113433A691A60FB682E
:1047C000002B12D0FB6801221343FB600D4B0E4AF5
:1047D000DA610C4BFA680D494A401A62094BBA6813
:1047E0005A62084BFA689A6202E0064B0022DA61CC
:1047F0007B6800211800FFF75DFFC046BD4606B08C
:1048000080BDC04600800540D3C007B02D3FF84FA3
:1048100080B582B000AF0D4BAA2212011A600B4B7B
:104820002F22DA60094B7B60094B3B607B6880225A
:10483000920113433A681A60C046044B5B68002B30
:10484000FBDAC046BD4602B080BDC0460040024013
:1048500000B0FA0080B584B000AFB9607A603B6008
:104860000F23FB18021C1A70C046BD4604B080BD61
:1048700080B584B000AFB9607A603B600F217B18CF
:10488000021C1A7008007B181B78002B07D0BB682D
:104890001A68BB6859683B181B7818009047C046D7
:1048A000BD4604B080BD80B584B000AF786039608B
:1048B0007B68FB6002E0FB680133FB60FB681B78F0
:1048C000002B04D03B685A1E3A60002BF3D1FA68E3
:1048D0007B68D31A1800BD4604B080BD80B582B095
:1048E00000AF0200FB1D1A70FB1D1B782F2B05D992
:1048F000FB1D1B78392B01D8012300E000231A1C73
:1049000001231340DBB21800BD4602B080BD80B564
:1049100084B000AF78600023FB600EE0FA681300FB
:104920009B009B185B0018007B681B68591C7A6809
:1049300011601B78C318303BFB607B681B681B78D9
:104940001800FFF7CBFF031EE8D1FB681800BD4637
:1049500004B080BD90B587B000AFF860B9607A60F0
:104960003B607B683B617B6B0222134024D17B6BF5
:104970000122134020D1FB6A7B610AE07A68531C54
:104980007B603B68B968FC682020A0477B690133E5
:104990007B617A693B6B9A42F0D30DE0FB6A013B85
:1049A000FB62BA6AFB6AD31818787A68531C7B607A
:1049B0003B68B968FC68A047FB6A002BEED17B6BB3
:1049C000022213400ED007E07A68531C7B603B68DC
:1049D000B968FC682020A0477A683B69D31A3A6B13
:1049E0009A42F1D87B681800BD4607B090BD90B5DB
:1049F00089B004AFF860B9607A603B60BB6B02229B
:104A0000134034D17B6B002B17D0BB6B01221340BA
:104A100013D02823FB181B78002B03D1BB6B0C226F
:104A200013400AD07B6B013B7B6306E07B6A5A1C18
:104A30007A623A6AD31830221A707A6A3B6B9A42C9
:104A40000AD27B6A1F2BF1D906E07B6A5A1C7A6274
:104A50003A6AD31830221A70BB6B0122134006D079
:104A60007A6A7B6B9A4202D27B6A1F2BEDD9BB6BB1
:104A70001022134056D0BA6B8023DB00134016D1AE
:104A80007B6A002B13D07A6A3B6B9A4203D07A6A16
:104A90007B6B9A420BD17B6A013B7B627B6A002B6A
:104AA00005D0FB6A102B02D17B6A013B7B62FB6A5B
:104AB000102B0ED1BB6B202213400AD17B6A1F2B17
:104AC00007D87B6A5A1C7A623A6AD31878221A701D
:104AD0001EE0FB6A102B0ED1BB6B202213400AD0C4
:104AE0007B6A1F2B07D87B6A5A1C7A623A6AD318F2
:104AF00058221A700CE0FB6A022B09D17B6A1F2B2B
:104B000006D87B6A5A1C7A623A6AD31862221A70F3
:104B10007B6A1F2B06D87B6A5A1C7A623A6AD318C2
:104B200030221A707B6A1F2B23D82823FB181B788E
:104B3000002B07D07B6A5A1C7A623A6AD3182D225E
:104B40001A7016E0BB6B0422134007D07B6A5A1C14
:104B50007A623A6AD3182B221A700AE0BB6B0822D9
:104B6000134006D07B6A5A1C7A623A6AD318202214
:104B70001A703C687A68B968F868BB6B03937B6B02
:104B800002937B6A01933B6A00932300FFF7E2FEE6
:104B900003001800BD4605B090BD90B597B008AFB2
:104BA000F860B9607A603B6000237B63BB6C002BCC
:104BB00003D1FB6D10229343FB65FA6D8023DB006C
:104BC000134002D0BB6C002B33D0BB6C396D180086
:104BD00001F0E2FA0B001A0033217B181A700A0068
:104BE000BB181B78092B04D8BB181B783033DAB2FA
:104BF0000DE0FB6D2022134001D0412300E0612332
:104C00003322BA1812789B18DBB20A3BDAB27B6BFC
:104C1000591C796310217918CA54396DB86C01F0A8
:104C2000BBFA0300BB64BB6C002B02D07B6B1F2B59
:104C3000CBD93C687A68B968F868FB6D0693BB6DA0
:104C400005937B6D04933B6D03934C23FB181B78FA
:104C500002937B6B01931023FB1800932300FFF753
:104C6000C6FE03001800BD460FB090BDB0B596B0AB
:104C700008AFF860B9607A603B6000237B63BB6C6F
:104C8000FA6C134303D1BB6E10229343BB66BA6E1A
:104C90008023DB00134003D0BB6CFA6C13433CD081
:104CA000B86CF96CBA6DFB6D01F0B8FA1C0013001A
:104CB0001900220033203B180A1C1A700200BB188E
:104CC0001B78092B04D8BB181B783033DAB20DE0FF
:104CD000BB6E2022134001D0412300E06123332228
:104CE000BA1812789B18DBB20A3BDAB27B6B591CFC
:104CF000796310217918CA54BA6DFB6DB86CF96CE0
:104D000001F08CFA03000C00BB64FC64BB6CFA6C11
:104D1000134302D07B6B1F2BC2D9BB6D3D687C68EF
:104D2000B968F868BA6E06927A6E05923A6E049285
:104D300003935023FB181B7802937B6B0193102382
:104D4000FB1800932B002200FFF751FE0300180010
:104D5000BD460EB0B0BD0000F0B59DB006AFF86026
:104D6000B9607A603B6000237B6500230024BB634D
:104D7000FC633A6F7B6F386F796F01F0D6FC031ECE
:104D800012D03C687A68B968F8688023FB181B6801
:104D90000393FB6F029303230193C94B00932300FA
:104DA000FFF7D8FD030025E201225242C54B386FC0
:104DB000796F01F0A7FC031E12D03C687A68B968CD
:104DC000F8688023FB181B680393FB6F029304238E
:104DD0000193BD4B00932300FFF7BCFD030009E2E4
:104DE00001225242B94B386F796F01F099FC031ED2
:104DF00024D08023FB181B680422134001D0B44B3D
:104E000000E0B44B8022BA18126804210A4001D095
:104E1000042200E003223E687D68BC68F8688021B7
:104E2000791809680391F96F029101920093330098
:104E30002A002100FFF78EFD0300DBE10022A64BD4
:104E4000386F796F01F06CFC031E07D10022A34B71
:104E5000386F796F01F056FC031E14D03D687A68F4
:104E6000B968F8688023FB181B680493FB6F0393F1
:104E7000BB6F02933B6F7C6F009301942B0000F09B
:104E8000BDF90300B6E153243B1900221A70002239
:104E90000023386F796F01F035FC031E0CD03B19ED
:104EA00001221A703A6F7B6F0020002101F0B7FBDE
:104EB00003000C003B677C678023FB181A68802383
:104EC000DB0013400CD10623BB6709E07B6D5A1C45
:104ED0007A651022BA183021D154BB6F013BBB67F1
:104EE0007B6D1F2B02D8BB6F092BEFD8386F796F02
:104EF00001F046FC0300FB64F86C01F029FC0300A0
:104F00000C001A002300386F796F01F088FB030052
:104F10000C0018002100724ABB6FDB00D3185C68DC
:104F20001B681A00230001F0AAFB03000C003B637E
:104F30007C63386B796B01F047FC0300BB64B86C91
:104F400001F002FC03000C001A002300386B796B9F
:104F500001F065FB03000C00BB63FC630022614BA6
:104F6000B86BF96B01F0DCFB031E17D0BB6C01338F
:104F7000BB64B86C01F0E8FB594ABB6FDB00D31887
:104F80005C681B681A00230001F0C2FB031E17D0E7
:104F90000023BB64FB6C0133FB6411E00022514B26
:104FA000B86BF96B01F0AEFB031E09D1BB6C002B93
:104FB00003D0BB6C0122134002D0BB6C0133BB6435
:104FC000BB6F002B3DD1F86C01F0C2FB03000C005D
:104FD0001A002300386F796F01F021FB03000C00E9
:104FE000BB63FC6301231C1C00223E4BB86BF96BB6
:104FF00001F088FB031E01D100231C1CE3B2012237
:105000005340DBB2002B00D187E001231C1C00229F
:10501000344BB86BF96B01F083FB031E01D1002305
:105020001C1CE3B201225340DBB2002B00D174E020
:10503000FB6C0122134000D16FE0FB6C0133FB6479
:105040006BE0BB6F7B641BE07B6C013B7B64BB6CE8
:105050000A21180001F0A0F80B00DAB27B6D591C90
:1050600079653032D1B21022BA18D154BB6C0A2102
:10507000180001F091F80300BB64BB6C002B03D057
:105080007B6D1F2BE0D908E0C04606E07B6D5A1C03
:105090007A651022BA183021D1547B6D1F2B04D8A9
:1050A0007B6C5A1E7A64002BF0D17B6D1F2B34D899
:1050B0007B6D5A1C7A651022BA182E21D1542CE02F
:1050C00018D60010FFFFEFFF1CD60010FFFFEF7F88
:1050D00024D600102CD6001065CDCD4165CDCDC1B4
:1050E00010D800100000E03FFB6C0A21180001F00E
:1050F0002BF80B00DAB27B6D591C79653032D1B2D6
:105100001022BA18D154FB6C0A21180001F01CF8C7
:105110000300FB64FB6C002B03D07B6D1F2BE3D9DA
:1051200000E0C04680217B181B680222134023D177
:105130007B181B68012213401ED0FB6F002B14D07C
:105140005323FB181B78002B04D17B181B680C22FF
:1051500013400AD0FB6F013BFB6706E07B6D5A1CD6
:105160007A651022BA183021D1547A6DFB6F9A42B9
:1051700002D27B6D1F2BF1D97B6D1F2B27D85323B8
:10518000FB181B78002B07D07B6D5A1C7A65102208
:10519000BA182D21D1541AE08023FB181B68042271
:1051A000134007D07B6D5A1C7A651022BA182B2148
:1051B000D1540CE08023FB181B680822134006D052
:1051C0007B6D5A1C7A651022BA182021D1543C6894
:1051D0007A68B968F8688023FB181B680393FB6F33
:1051E00002937B6D01931023FB1800932300FFF7BC
:1051F000B1FB03001800BD4617B0F0BDF0B5A5B077
:1052000006AFF863B9637A633B6390243B191A686D
:105210005B6839190868496801F087FA031E13D1E1
:1052200001225242DA4B39190868496801F078FACC
:10523000031E09D101225242D64B39190868496828
:1052400001F060FA031E1AD03D6B7A6BB96BF86BF4
:10525000A023FB181B6804939C23FB181B68039373
:105260009823FB181B6802939023FB185C681B684B
:10527000009301942B00FFF76FFD030088E23B23AE
:105280003022BA18D4180123FB7100220023902188
:1052900079180868496801F035FA031E01D1002326
:1052A000FB71FB7923703B2330229446BC4463445A
:1052B0001B78002B0CD09022BB181B68BA18136007
:1052C00094217B181A6880231B0653407A181360B8
:1052D000A023FB181A688023DB00134003D10623A8
:1052E0009822BA18136090217B185C681B683B6495
:1052F0007C643B6C7C6C1A00224300D10DE13B6C5A
:105300007C6C230D3B6200237B623B6A5B055B0D7B
:10531000A14A944663447B663B6C7C6C0022190076
:1053200091430D0023031E0B00232B43BB619B4BBA
:105330003343FB61BB69FC693B647C64786E01F0BC
:1053400007FA974A974B01F09AF903000C001800EE
:105350002100954A954B01F06BF903000C001D00EC
:105360002600386C796C0022914B01F058F903004B
:105370000C00180021008F4A8F4B01F080F90300C8
:105380000C001A0023002800310001F051F903003D
:105390000C001800210001F0F3F903007B67786F1F
:1053A00001F0D6F9854A864B01F069F903000C003B
:1053B000180021000022834B01F03AF903000C0091
:1053C0001800210001F0DCF903007B66786F01F022
:1053D000BFF97D4A7D4B01F052F903000C00250016
:1053E0001C00786E01F0B4F9794A7A4B01F047F964
:1053F00002000B002000290001F011F903000C004D
:10540000BB65FC65BA6DFB6DB86DF96D01F037F9E0
:1054100003000C003B657C657B6E6F4A94466344D9
:105420003B61DB177B613B691B05FB600023BB60B5
:10543000BB68FC683B647C643C6C7D6CB86DF96D4A
:1054400002000B0001F0F4F802000B003A627B62EC
:10545000BA6DFB6D00208021C90501F0E0F8020063
:105460000B00BA61FB6100225C4B386D796D01F075
:10547000E8F802000B00100019000022584B01F060
:10548000D7F802000B00386D796D01F0DAF80200F0
:105490000B00100019000022524B01F0C9F8020065
:1054A0000B00386D796D01F0CCF802000B00B86983
:1054B000F96901F0BDF802000B00386A796A01F061
:1054C000C0F802000B00100019000022334B01F05D
:1054D000AFF802000B002000290001F0D0F8030013
:1054E0000C003B647C643B6C7C6C1A0023009021B4
:1054F00079180868496801F005F9031E0FD07B6F21
:10550000013B7B67386C796C0022354B01F099F8D0
:1055100003000C003B647C6401E000237B677B6F2D
:10552000632B04DC7B6F633301DB042300E0052382
:105530003B67A023FB181A6880231B01134000D18E
:105540007AE03B6C7C6C1A00224312D0264A274B2F
:10555000902439190868496801F0DAF8031E5AD016
:105560000022234B39190868496801F0CBF8031E63
:1055700051D098217B181B687A6F9A423ADA7B18CF
:105580001A687B6FD31A013B7A18136036E0C04665
:10559000FFFFEF7FFFFFEFFF01FCFFFF0000F03F89
:1055A000FB799F501344D33FB3C8608B288AC63F12
:1055B0000000F83F61436F63A787D23F71A3790969
:1055C0004F930A400000E03F1655B5BBB16B024057
:1055D000EF39FAFE422EE63FFF03000000002C40A8
:1055E00000002440000018402D431CEBE2361A3F17
:1055F00080842E4100239822BA181360A0217B18C2
:105600001B688022D20013437A18136000233B6783
:1056100000237B6710E098217B181B68002B0BD0C0
:10562000A023FB181A688023DB00134004D07B18EA
:105630001B68013B7A1813609C22BB181B68FB6631
:10564000BB181A683B6F9A4204D9FA6E3B6FD31AA3
:10565000FB6601E00023FB66A023FB181B68022207
:10566000134004D03B6F002B01D00023FB667B6FFF
:10567000002B0ED03B6C7C6C1A002300902579190E
:105680000868496800F0DDFF03000C007A19136018
:1056900054607B6BFB643B2330229446BC446344E0
:1056A0001B78002B0BD09023FB181B68BB62942344
:1056B000FB181B68802212065A40FA6205E090230C
:1056C000FB185C681B68BB62FC62A023FA181368B5
:1056D000314A13403C6B7A6BB96BF86B0493FB6EE9
:1056E000039398257D192B680293BD6AFE6A009585
:1056F00001962300FFF730FB03007B633B6F002B19
:1057000045D0A023FB181B682022134001D0452060
:1057100000E065207A6B531C7B633B6BB96BFC6BC1
:10572000A0477B6FDA179B1853409C467B6FDB0FBB
:10573000DBB23A6F013A3E6B7D6BBC6BF86B0521B7
:1057400005910492002203920A2202920193634679
:10575000009333002A002100FFF71FFA03007B6348
:10576000A023FB181B680222134010D007E07A6BBD
:10577000531C7B633B6BB96BFC6B2020A0477A6B9F
:10578000FB6CD31A9C22BA1812689A42EFD87B6B32
:105790001800BD461FB0F0BDFFF7FFFFF0B5C646CD
:1057A00000B5A6B00AAF78623962FA61BB61002326
:1057B000FB653B6A002B01D000F023FCD04B7B62E1
:1057C00000F01FFCBB691B78252B0DD0BB69187836
:1057D000FA6D531CFB65FB69396A7C6AA047BB699B
:1057E0000133BB6100F00DFCBB690133BB610023D9
:1057F000FB66BB691B78203B102B36D89A00C14B47
:10580000D3181B689F46FB6E01221343FB66BB69DE
:105810000133BB6101233B662AE0FB6E0222134386
:10582000FB66BB690133BB6101233B6620E0FB6E75
:1058300004221343FB66BB690133BB6101233B6652
:1058400016E0FB6E08221343FB66BB690133BB61A4
:1058500001233B660CE0FB6E10221343FB66BB6921
:105860000133BB6101233B6602E000233B66C04677
:105870003B6E002BBDD10023BB66BB691B781800B3
:10588000FFF72CF8031E07D01823FB181800FFF7AA
:105890003EF80300BB661CE0BB691B782A2B18D1BD
:1058A0008823FB181B681A1D882179180A601B6859
:1058B000BB64BB6C002B07DAFB6E02221343FB6652
:1058C000BB6C5B42BB6601E0BB6CBB66BB69013372
:1058D000BB6100237B66BB691B782E2B2BD1FB6E33
:1058E0008022D2001343FB66BB690133BB61BB69F5
:1058F0001B781800FEF7F2FF031E07D01823FB18D1
:105900001800FFF704F803007B6614E0BB691B78FE
:105910002A2B10D18823FB181B681A1D882179189F
:105920000A601B687B647B6C002B00DA00237B66BB
:10593000BB690133BB61BB691B78683B122B47D83D
:105940009A00714BD3181B689F46FB6E8022520051
:105950001343FB66BB690133BB61BB691B786C2BCE
:1059600038D1FB6E802292001343FB66BB69013382
:10597000BB612FE0FB6E80221343FB66BB690133E2
:10598000BB61BB691B78682B26D1FB6E4022134399
:10599000FB66BB690133BB611EE0FB6E80225200D7
:1059A0001343FB66BB690133BB6116E0FB6E8022CB
:1059B00092001343FB66BB690133BB610DE0FB6ED4
:1059C000802252001343FB66BB690133BB6104E0D4
:1059D000C04602E0C04600E0C046BB691B78253BDC
:1059E000532B00D900E39A00484BD3181B689F46FD
:1059F000BB691B78782B03D0BB691B78582B02D16D
:105A00001023BB6513E0BB691B786F2B02D1082301
:105A1000BB650CE0BB691B78622B02D10223BB651E
:105A200005E00A23BB65FB6E10229343FB66BB694E
:105A30001B78582B03D1FB6E20221343FB66BB69F6
:105A40001B78692B07D0BB691B78642B03D0FB6ED6
:105A50000C229343FB66FA6E8023DB00134003D0D5
:105A6000FB6E01229343FB66BB691B78692B04D054
:105A7000BB691B78642B00D0B7E0FA6E80239B00D3
:105A8000134045D08823FB181B6807330722934334
:105A90001A000832882179180A605C681B68BB63A9
:105AA000FC63BB6BFC6B002C04DA190022000024A1
:105AB0004B42944119002200FB6BDB0FD8B2BB6D47
:105AC0003B6100237B61FB699C46FE6D3D6A7B6AFE
:105AD0009846FB6E0893BB6E07937B6E06933B69FB
